:020000020000FC
:100000002898299802E004B91FEF1AB91FEF17B911
:10001000299A2FD0299816D03C2F3BB902D037D03F
:10002000F1CFC83030F00CF40895C03228F03CF421
:10003000089531E038B9089532E038B9089534E0D0
:1000400038B9089540E04093800045EC409381002A
:1000500056B355FFFDCF0091860056BB45E840934F
:10006000810056B355FFFDCFC0918600C01B56BB23
:100070000895442746BD44E147BD4AE045BD45B328
:1000800041FFFDCF442745BD42E045BB08955FEFEA
:100090006FEF72E37A95F1F76A95D9F75A95C1F740
:0200A0000895C1
:00000001FF
